{
    "_format": "hh-sol-artifact-1",
    "contractName": "FSwapPool",
    "sourceName": "contracts/FSwapPool.sol",
    "abi": [
        {
            "inputs": [
                {
                    "internalType": "address",
                    "name": "_token0",
                    "type": "address"
                },
                {
                    "internalType": "address",
                    "name": "_token1",
                    "type": "address"
                }
            ],
            "stateMutability": "nonpayable",
            "type": "constructor"
        },
        {
            "inputs": [],
            "name": "balance0",
            "outputs": [
                {
                    "internalType": "uint256",
                    "name": "",
                    "type": "uint256"
                }
            ],
            "stateMutability": "view",
            "type": "function"
        },
        {
            "inputs": [],
            "name": "balance1",
            "outputs": [
                {
                    "internalType": "uint256",
                    "name": "",
                    "type": "uint256"
                }
            ],
            "stateMutability": "view",
            "type": "function"
        },
        {
            "inputs": [
                {
                    "internalType": "uint256",
                    "name": "_amount0",
                    "type": "uint256"
                },
                {
                    "internalType": "uint256",
                    "name": "_amount1",
                    "type": "uint256"
                }
            ],
            "name": "deposit",
            "outputs": [],
            "stateMutability": "payable",
            "type": "function"
        },
        {
            "inputs": [],
            "name": "liquidity",
            "outputs": [
                {
                    "internalType": "uint256",
                    "name": "",
                    "type": "uint256"
                }
            ],
            "stateMutability": "view",
            "type": "function"
        },
        {
            "inputs": [
                {
                    "internalType": "address",
                    "name": "",
                    "type": "address"
                }
            ],
            "name": "providers",
            "outputs": [
                {
                    "internalType": "uint256",
                    "name": "",
                    "type": "uint256"
                }
            ],
            "stateMutability": "view",
            "type": "function"
        },
        {
            "inputs": [
                {
                    "internalType": "bool",
                    "name": "_isToken0",
                    "type": "bool"
                },
                {
                    "internalType": "uint256",
                    "name": "_amount",
                    "type": "uint256"
                }
            ],
            "name": "swap",
            "outputs": [],
            "stateMutability": "payable",
            "type": "function"
        },
        {
            "inputs": [],
            "name": "token0",
            "outputs": [
                {
                    "internalType": "address",
                    "name": "",
                    "type": "address"
                }
            ],
            "stateMutability": "view",
            "type": "function"
        },
        {
            "inputs": [],
            "name": "token1",
            "outputs": [
                {
                    "internalType": "address",
                    "name": "",
                    "type": "address"
                }
            ],
            "stateMutability": "view",
            "type": "function"
        },
        {
            "inputs": [],
            "name": "tokens",
            "outputs": [
                {
                    "internalType": "uint256",
                    "name": "",
                    "type": "uint256"
                }
            ],
            "stateMutability": "view",
            "type": "function"
        },
        {
            "inputs": [],
            "name": "withdraw",
            "outputs": [],
            "stateMutability": "nonpayable",
            "type": "function"
        }
    ],
    "bytecode": "0x60c06040523480156200001157600080fd5b506040516200140738038062001407833981810160405281019062000037919062000120565b8173ffffffffffffffffffffffffffffffffffffffff1660808173ffffffffffffffffffffffffffffffffffffffff16815250508073ffffffffffffffffffffffffffffffffffffffff1660a08173ffffffffffffffffffffffffffffffffffffffff1681525050600080819055506000600181905550505062000167565b600080fd5b600073ffffffffffffffffffffffffffffffffffffffff82169050919050565b6000620000e882620000bb565b9050919050565b620000fa81620000db565b81146200010657600080fd5b50565b6000815190506200011a81620000ef565b92915050565b600080604083850312156200013a5762000139620000b6565b5b60006200014a8582860162000109565b92505060206200015d8582860162000109565b9150509250929050565b60805160a05161120a620001fd600039600081816104350152818161056e01528181610645015281816106b7015281816107140152818161073f015281816107f60152818161087101526109f601526000818161023e0152818161026d015281816102980152818161040b015281816105090152818161061b015281816106e10152818161081f01526109cc015261120a6000f3fe6080604052600436106100915760003560e01c80639d63848a116100595780639d63848a1461016b578063c037646a14610196578063c45c4f58146101b2578063d21220a7146101dd578063e2bbb1581461020857610091565b80630787bc27146100965780630dfe1681146100d35780631a686502146100fe5780631c69ad00146101295780633ccfd60b14610154575b600080fd5b3480156100a257600080fd5b506100bd60048036038101906100b89190610d4b565b610224565b6040516100ca9190610d91565b60405180910390f35b3480156100df57600080fd5b506100e861023c565b6040516100f59190610dbb565b60405180910390f35b34801561010a57600080fd5b50610113610260565b6040516101209190610d91565b60405180910390f35b34801561013557600080fd5b5061013e610266565b60405161014b9190610d91565b60405180910390f35b34801561016057600080fd5b5061016961034d565b005b34801561017757600080fd5b506101806104ee565b60405161018d9190610d91565b60405180910390f35b6101b060048036038101906101ab9190610e3a565b6104f4565b005b3480156101be57600080fd5b506101c761070d565b6040516101d49190610d91565b60405180910390f35b3480156101e957600080fd5b506101f26107f4565b6040516101ff9190610dbb565b60405180910390f35b610222600480360381019061021d9190610e7a565b610818565b005b60026020528060005260406000206000915090505481565b7f000000000000000000000000000000000000000000000000000000000000000081565b60005481565b60006102917f0000000000000000000000000000000000000000000000000000000000000000610ace565b15610346577f000000000000000000000000000000000000000000000000000000000000000073ffffffffffffffffffffffffffffffffffffffff166370a08231306040518263ffffffff1660e01b81526004016102ef9190610dbb565b60206040518083038186803b15801561030757600080fd5b505afa15801561031b573d6000803e3d6000fd5b505050506040513d601f19601f8201168201806040525081019061033f9190610ecf565b905061034a565b4790505b90565b6000600154670de0b6b3a7640000600260003373ffffffffffffffffffffffffffffffffffffffff1673ffffffffffffffffffffffffffffffffffffffff168152602001908152602001600020546103a59190610f2b565b6103af9190610fb4565b90506000670de0b6b3a76400006103c4610266565b836103cf9190610f2b565b6103d99190610fb4565b90506000670de0b6b3a76400006103ee61070d565b846103f99190610f2b565b6104039190610fb4565b905061042f827f0000000000000000000000000000000000000000000000000000000000000000610b17565b610459817f0000000000000000000000000000000000000000000000000000000000000000610b17565b600081836104679190610f2b565b90508060008082825461047a9190610fe5565b92505081905550600260003373ffffffffffffffffffffffffffffffffffffffff1673ffffffffffffffffffffffffffffffffffffffff1681526020019081526020016000206000905581836104d09190611019565b600160008282546104e19190610fe5565b9250508190555050505050565b60015481565b600081141561050257600080fd5b600061052d7f0000000000000000000000000000000000000000000000000000000000000000610ace565b61055c57826105435761053e610266565b610557565b8161054c610266565b6105569190610fe5565b5b610565565b610564610266565b5b905060006105927f0000000000000000000000000000000000000000000000000000000000000000610ace565b6105c25783156105a9576105a461070d565b6105bd565b826105b261070d565b6105bc9190610fe5565b5b6105cb565b6105ca61070d565b5b9050831561066f5760006103e86103e685856105e79190611019565b6000546105f49190610fb4565b846105ff9190610fe5565b6106099190610f2b565b6106139190610fb4565b905061063f847f0000000000000000000000000000000000000000000000000000000000000000610c34565b610669817f0000000000000000000000000000000000000000000000000000000000000000610b17565b50610707565b60006103e86103e685846106839190611019565b6000546106909190610fb4565b8561069b9190610fe5565b6106a59190610f2b565b6106af9190610fb4565b90506106db847f0000000000000000000000000000000000000000000000000000000000000000610c34565b610705817f0000000000000000000000000000000000000000000000000000000000000000610b17565b505b50505050565b60006107387f0000000000000000000000000000000000000000000000000000000000000000610ace565b156107ed577f000000000000000000000000000000000000000000000000000000000000000073ffffffffffffffffffffffffffffffffffffffff166370a08231306040518263ffffffff1660e01b81526004016107969190610dbb565b60206040518083038186803b1580156107ae57600080fd5b505afa1580156107c2573d6000803e3d6000fd5b505050506040513d601f19601f820116820180604052508101906107e69190610ecf565b90506107f1565b4790505b90565b7f000000000000000000000000000000000000000000000000000000000000000081565b60006108437f0000000000000000000000000000000000000000000000000000000000000000610ace565b61085f5782610850610266565b61085a9190610fe5565b610868565b610867610266565b5b905060006108957f0000000000000000000000000000000000000000000000000000000000000000610ace565b6108b157826108a261070d565b6108ac9190610fe5565b6108ba565b6108b961070d565b5b9050600082141580156108ce575060008114155b156109c657808211156109525780612710836108ea9190610f2b565b6108f49190610fb4565b83612710866109039190610f2b565b61090d9190610fb4565b1461094d576040517f08c379a0000000000000000000000000000000000000000000000000000000008152600401610944906110cc565b60405180910390fd5b6109c5565b81612710826109619190610f2b565b61096b9190610fb4565b846127108561097a9190610f2b565b6109849190610fb4565b146109c4576040517f08c379a00000000000000000000000000000000000000000000000000000000081526004016109bb906110cc565b60405180910390fd5b5b5b6109f0847f0000000000000000000000000000000000000000000000000000000000000000610c34565b610a1a837f0000000000000000000000000000000000000000000000000000000000000000610c34565b60008385610a289190610f2b565b905080600080828254610a3b9190611019565b925050819055508385610a4e9190611019565b60016000828254610a5f9190611019565b925050819055508385610a729190611019565b600260003373ffffffffffffffffffffffffffffffffffffffff1673ffffffffffffffffffffffffffffffffffffffff1681526020019081526020016000206000828254610ac09190611019565b925050819055505050505050565b60008073ffffffffffffffffffffffffffffffffffffffff168273ffffffffffffffffffffffffffffffffffffffff161415610b0d5760009050610b12565b600190505b919050565b610b2081610ace565b15610bb8578073ffffffffffffffffffffffffffffffffffffffff1663a9059cbb33846040518363ffffffff1660e01b8152600401610b609291906110ec565b602060405180830381600087803b158015610b7a57600080fd5b505af1158015610b8e573d6000803e3d6000fd5b505050506040513d601f19601f82011682018060405250810190610bb2919061112a565b50610c30565b60003373ffffffffffffffffffffffffffffffffffffffff1683604051610bde90611188565b60006040518083038185875af1925050503d8060008114610c1b576040519150601f19603f3d011682016040523d82523d6000602084013e610c20565b606091505b5050905080610c2e57600080fd5b505b5050565b610c3d81610ace565b15610cd7578073ffffffffffffffffffffffffffffffffffffffff166323b872dd3330856040518463ffffffff1660e01b8152600401610c7f9392919061119d565b602060405180830381600087803b158015610c9957600080fd5b505af1158015610cad573d6000803e3d6000fd5b505050506040513d601f19601f82011682018060405250810190610cd1919061112a565b50610ce4565b348214610ce357600080fd5b5b5050565b600080fd5b600073ffffffffffffffffffffffffffffffffffffffff82169050919050565b6000610d1882610ced565b9050919050565b610d2881610d0d565b8114610d3357600080fd5b50565b600081359050610d4581610d1f565b92915050565b600060208284031215610d6157610d60610ce8565b5b6000610d6f84828501610d36565b91505092915050565b6000819050919050565b610d8b81610d78565b82525050565b6000602082019050610da66000830184610d82565b92915050565b610db581610d0d565b82525050565b6000602082019050610dd06000830184610dac565b92915050565b60008115159050919050565b610deb81610dd6565b8114610df657600080fd5b50565b600081359050610e0881610de2565b92915050565b610e1781610d78565b8114610e2257600080fd5b50565b600081359050610e3481610e0e565b92915050565b60008060408385031215610e5157610e50610ce8565b5b6000610e5f85828601610df9565b9250506020610e7085828601610e25565b9150509250929050565b60008060408385031215610e9157610e90610ce8565b5b6000610e9f85828601610e25565b9250506020610eb085828601610e25565b9150509250929050565b600081519050610ec981610e0e565b92915050565b600060208284031215610ee557610ee4610ce8565b5b6000610ef384828501610eba565b91505092915050565b7f4e487b7100000000000000000000000000000000000000000000000000000000600052601160045260246000fd5b6000610f3682610d78565b9150610f4183610d78565b9250817fffffffffffffffffffffffffffffffffffffffffffffffffffffffffffffffff0483118215151615610f7a57610f79610efc565b5b828202905092915050565b7f4e487b7100000000000000000000000000000000000000000000000000000000600052601260045260246000fd5b6000610fbf82610d78565b9150610fca83610d78565b925082610fda57610fd9610f85565b5b828204905092915050565b6000610ff082610d78565b9150610ffb83610d78565b92508282101561100e5761100d610efc565b5b828203905092915050565b600061102482610d78565b915061102f83610d78565b9250827fffffffffffffffffffffffffffffffffffffffffffffffffffffffffffffffff0382111561106457611063610efc565b5b828201905092915050565b600082825260208201905092915050565b7f426164206c697175696469747920726174696f00000000000000000000000000600082015250565b60006110b660138361106f565b91506110c182611080565b602082019050919050565b600060208201905081810360008301526110e5816110a9565b9050919050565b60006040820190506111016000830185610dac565b61110e6020830184610d82565b9392505050565b60008151905061112481610de2565b92915050565b6000602082840312156111405761113f610ce8565b5b600061114e84828501611115565b91505092915050565b600081905092915050565b50565b6000611172600083611157565b915061117d82611162565b600082019050919050565b600061119382611165565b9150819050919050565b60006060820190506111b26000830186610dac565b6111bf6020830185610dac565b6111cc6040830184610d82565b94935050505056fea26469706673582212200e1b50f67f8c74b2c9a183ad3a3c783d5e5d1036acabe23232f2543f02349efb64736f6c63430008090033",
    "linkReferences": {},
    "deployedLinkReferences": {}
}